{
  "_format": "hh-sol-artifact-1",
  "contractName": "ParentStorage",
  "sourceName": "contracts/arogya/ParentStorage.sol",
  "abi": [
    {
      "inputs": [
        {
          "internalType": "uint256",
          "name": "demoUid",
          "type": "uint256"
        }
      ],
      "stateMutability": "nonpayable",
      "type": "constructor"
    },
    {
      "anonymous": false,
      "inputs": [
        {
          "indexed": false,
          "internalType": "address",
          "name": "address_new_TokenFactory",
          "type": "address"
        }
      ],
      "name": "LogNFTDeployment",
      "type": "event"
    },
    {
      "inputs": [
        {
          "internalType": "uint256",
          "name": "",
          "type": "uint256"
        }
      ],
      "name": "TokenFactoryStorage",
      "outputs": [
        {
          "internalType": "address",
          "name": "",
          "type": "address"
        }
      ],
      "stateMutability": "view",
      "type": "function"
    },
    {
      "inputs": [],
      "name": "_demoUid",
      "outputs": [
        {
          "internalType": "uint256",
          "name": "",
          "type": "uint256"
        }
      ],
      "stateMutability": "view",
      "type": "function"
    },
    {
      "inputs": [
        {
          "internalType": "address",
          "name": "",
          "type": "address"
        }
      ],
      "name": "accessMapping1",
      "outputs": [
        {
          "internalType": "address",
          "name": "",
          "type": "address"
        }
      ],
      "stateMutability": "view",
      "type": "function"
    },
    {
      "inputs": [
        {
          "internalType": "address",
          "name": "",
          "type": "address"
        }
      ],
      "name": "accessMapping2",
      "outputs": [
        {
          "internalType": "address",
          "name": "",
          "type": "address"
        }
      ],
      "stateMutability": "view",
      "type": "function"
    },
    {
      "inputs": [
        {
          "internalType": "bytes32",
          "name": "baseURI",
          "type": "bytes32"
        },
        {
          "internalType": "bytes32",
          "name": "ownerName",
          "type": "bytes32"
        },
        {
          "internalType": "uint256",
          "name": "ownerAge",
          "type": "uint256"
        },
        {
          "internalType": "bytes32",
          "name": "ownerBloodGroup",
          "type": "bytes32"
        },
        {
          "internalType": "bytes32",
          "name": "ownerAllergies",
          "type": "bytes32"
        },
        {
          "internalType": "bytes32",
          "name": "ownerMedication",
          "type": "bytes32"
        },
        {
          "internalType": "bytes32",
          "name": "ownerAbout",
          "type": "bytes32"
        }
      ],
      "name": "deployNFT",
      "outputs": [],
      "stateMutability": "nonpayable",
      "type": "function"
    },
    {
      "inputs": [
        {
          "internalType": "address",
          "name": "",
          "type": "address"
        }
      ],
      "name": "deployedFromAddress",
      "outputs": [
        {
          "internalType": "bool",
          "name": "",
          "type": "bool"
        }
      ],
      "stateMutability": "view",
      "type": "function"
    },
    {
      "inputs": [],
      "name": "getAddresses",
      "outputs": [
        {
          "internalType": "address[]",
          "name": "",
          "type": "address[]"
        }
      ],
      "stateMutability": "view",
      "type": "function"
    },
    {
      "inputs": [],
      "name": "uid",
      "outputs": [
        {
          "internalType": "uint256",
          "name": "",
          "type": "uint256"
        }
      ],
      "stateMutability": "view",
      "type": "function"
    }
  ],
  "bytecode": "0x6080604052600160025534801561001557600080fd5b50604051610ba9380380610ba98339818101604052810190610037919061007f565b80600081905550506100ac565b600080fd5b6000819050919050565b61005c81610049565b811461006757600080fd5b50565b60008151905061007981610053565b92915050565b60006020828403121561009557610094610044565b5b60006100a38482850161006a565b91505092915050565b610aee806100bb6000396000f3fe608060405234801561001057600080fd5b50600436106100885760003560e01c8063a39fac121161005b578063a39fac121461013b578063ad73cecd14610159578063db0d4b1214610175578063f514ce36146101a557610088565b80630cae1e0c1461008d57806332f42e3b146100bd578063341e1da8146100db5780639b9ff5311461010b575b600080fd5b6100a760048036038101906100a29190610675565b6101c3565b6040516100b491906106b1565b60405180910390f35b6100c56101f6565b6040516100d291906106e5565b60405180910390f35b6100f560048036038101906100f09190610675565b6101fc565b60405161010291906106b1565b60405180910390f35b6101256004803603810190610120919061072c565b61022f565b60405161013291906106b1565b60405180910390f35b61014361026e565b6040516101509190610817565b60405180910390f35b610173600480360381019061016e919061086f565b6102fc565b005b61018f600480360381019061018a9190610675565b6105ec565b60405161019c919061092c565b60405180910390f35b6101ad61060c565b6040516101ba91906106e5565b60405180910390f35b60036020528060005260406000206000915054906101000a900473ffffffffffffffffffffffffffffffffffffffff1681565b60005481565b60046020528060005260406000206000915054906101000a900473ffffffffffffffffffffffffffffffffffffffff1681565b6001818154811061023f57600080fd5b906000526020600020016000915054906101000a900473ffffffffffffffffffffffffffffffffffffffff1681565b606060018054806020026020016040519081016040528092919081815260200182805480156102f257602002820191906000526020600020905b8160009054906101000a900473ffffffffffffffffffffffffffffffffffffffff1673ffffffffffffffffffffffffffffffffffffffff16815260200190600101908083116102a8575b5050505050905090565b60001515600560003373ffffffffffffffffffffffffffffffffffffffff1673ffffffffffffffffffffffffffffffffffffffff16815260200190815260200160002060009054906101000a900460ff1615151461035957600080fd5b600073__$2e50f3608f7f008a324d6cc69db48e4e25$__63cbbe77f28989338a8a8a8a8a6002546040518a63ffffffff1660e01b81526004016103a499989796959493929190610986565b602060405180830381865af41580156103c1573d6000803e3d6000fd5b505050506040513d601f19601f820116820180604052508101906103e59190610a28565b905060016002546103f69190610a84565b6002819055506001819080600181540180825580915050600190039060005260206000200160009091909190916101000a81548173ffffffffffffffffffffffffffffffffffffffff021916908373ffffffffffffffffffffffffffffffffffffffff16021790555033600360008373ffffffffffffffffffffffffffffffffffffffff1673ffffffffffffffffffffffffffffffffffffffff16815260200190815260200160002060006101000a81548173ffffffffffffffffffffffffffffffffffffffff021916908373ffffffffffffffffffffffffffffffffffffffff16021790555080600460003373ffffffffffffffffffffffffffffffffffffffff1673ffffffffffffffffffffffffffffffffffffffff16815260200190815260200160002060006101000a81548173ffffffffffffffffffffffffffffffffffffffff021916908373ffffffffffffffffffffffffffffffffffffffff16021790555060011515600560003373ffffffffffffffffffffffffffffffffffffffff1673ffffffffffffffffffffffffffffffffffffffff16815260200190815260200160002060009054906101000a905050507f21abc446be85920c20044d46e4c2ad247c964091aeaea950e75be759c6562cc4816040516105da91906106b1565b60405180910390a15050505050505050565b60056020528060005260406000206000915054906101000a900460ff1681565b60025481565b600080fd5b600073ffffffffffffffffffffffffffffffffffffffff82169050919050565b600061064282610617565b9050919050565b61065281610637565b811461065d57600080fd5b50565b60008135905061066f81610649565b92915050565b60006020828403121561068b5761068a610612565b5b600061069984828501610660565b91505092915050565b6106ab81610637565b82525050565b60006020820190506106c660008301846106a2565b92915050565b6000819050919050565b6106df816106cc565b82525050565b60006020820190506106fa60008301846106d6565b92915050565b610709816106cc565b811461071457600080fd5b50565b60008135905061072681610700565b92915050565b60006020828403121561074257610741610612565b5b600061075084828501610717565b91505092915050565b600081519050919050565b600082825260208201905092915050565b6000819050602082019050919050565b61078e81610637565b82525050565b60006107a08383610785565b60208301905092915050565b6000602082019050919050565b60006107c482610759565b6107ce8185610764565b93506107d983610775565b8060005b8381101561080a5781516107f18882610794565b97506107fc836107ac565b9250506001810190506107dd565b5085935050505092915050565b6000602082019050818103600083015261083181846107b9565b905092915050565b6000819050919050565b61084c81610839565b811461085757600080fd5b50565b60008135905061086981610843565b92915050565b600080600080600080600060e0888a03121561088e5761088d610612565b5b600061089c8a828b0161085a565b97505060206108ad8a828b0161085a565b96505060406108be8a828b01610717565b95505060606108cf8a828b0161085a565b94505060806108e08a828b0161085a565b93505060a06108f18a828b0161085a565b92505060c06109028a828b0161085a565b91505092959891949750929550565b60008115159050919050565b61092681610911565b82525050565b6000602082019050610941600083018461091d565b92915050565b61095081610839565b82525050565b600061096182610617565b9050919050565b61097181610956565b82525050565b610980816106cc565b82525050565b60006101208201905061099c600083018c610947565b6109a9602083018b610947565b6109b6604083018a610968565b6109c36060830189610977565b6109d06080830188610947565b6109dd60a0830187610947565b6109ea60c0830186610947565b6109f760e0830185610947565b610a05610100830184610977565b9a9950505050505050505050565b600081519050610a2281610649565b92915050565b600060208284031215610a3e57610a3d610612565b5b6000610a4c84828501610a13565b91505092915050565b7f4e487b7100000000000000000000000000000000000000000000000000000000600052601160045260246000fd5b6000610a8f826106cc565b9150610a9a836106cc565b9250828201905080821115610ab257610ab1610a55565b5b9291505056fea2646970667358221220cf65586ced63e3899ca21b5a566d988f5b3992347239112141ab13e14cf0bf1664736f6c63430008110033",
  "linkReferences": {
    "contracts/arogya/ParentStorage.sol": {
      "TokenFactoryLibrary": [
        {
          "length": 20,
          "start": 1048
        }
      ]
    }
  },
  "deployedLinkReferences": {
    "contracts/arogya/ParentStorage.sol": {
      "TokenFactoryLibrary": [
        {
          "length": 20,
          "start": 861
        }
      ]
    }
  }
}