{
  "_format": "hh-sol-artifact-1",
  "contractName": "TokenFactory",
  "sourceName": "contracts/arogya/TokenFactory.sol",
  "abi": [
    {
      "inputs": [
        {
          "internalType": "bytes32",
          "name": "baseURI",
          "type": "bytes32"
        },
        {
          "internalType": "bytes32",
          "name": "ownerName",
          "type": "bytes32"
        },
        {
          "internalType": "address payable",
          "name": "ownerAddress",
          "type": "address"
        },
        {
          "internalType": "uint256",
          "name": "ownerAge",
          "type": "uint256"
        },
        {
          "internalType": "bytes32",
          "name": "ownerBloodGroup",
          "type": "bytes32"
        },
        {
          "internalType": "bytes32",
          "name": "ownerAllergies",
          "type": "bytes32"
        },
        {
          "internalType": "bytes32",
          "name": "ownerMedication",
          "type": "bytes32"
        },
        {
          "internalType": "bytes32",
          "name": "ownerAbout",
          "type": "bytes32"
        },
        {
          "internalType": "uint256",
          "name": "uid",
          "type": "uint256"
        }
      ],
      "stateMutability": "nonpayable",
      "type": "constructor"
    },
    {
      "anonymous": false,
      "inputs": [
        {
          "indexed": true,
          "internalType": "address",
          "name": "owner",
          "type": "address"
        },
        {
          "indexed": true,
          "internalType": "address",
          "name": "approved",
          "type": "address"
        },
        {
          "indexed": true,
          "internalType": "uint256",
          "name": "tokenId",
          "type": "uint256"
        }
      ],
      "name": "Approval",
      "type": "event"
    },
    {
      "anonymous": false,
      "inputs": [
        {
          "indexed": true,
          "internalType": "address",
          "name": "owner",
          "type": "address"
        },
        {
          "indexed": true,
          "internalType": "address",
          "name": "operator",
          "type": "address"
        },
        {
          "indexed": false,
          "internalType": "bool",
          "name": "approved",
          "type": "bool"
        }
      ],
      "name": "ApprovalForAll",
      "type": "event"
    },
    {
      "anonymous": false,
      "inputs": [
        {
          "indexed": true,
          "internalType": "address",
          "name": "previousOwner",
          "type": "address"
        },
        {
          "indexed": true,
          "internalType": "address",
          "name": "newOwner",
          "type": "address"
        }
      ],
      "name": "OwnershipTransferred",
      "type": "event"
    },
    {
      "anonymous": false,
      "inputs": [
        {
          "indexed": true,
          "internalType": "address",
          "name": "from",
          "type": "address"
        },
        {
          "indexed": true,
          "internalType": "address",
          "name": "to",
          "type": "address"
        },
        {
          "indexed": true,
          "internalType": "uint256",
          "name": "tokenId",
          "type": "uint256"
        }
      ],
      "name": "Transfer",
      "type": "event"
    },
    {
      "stateMutability": "payable",
      "type": "fallback"
    },
    {
      "inputs": [],
      "name": "_collectionId",
      "outputs": [
        {
          "internalType": "uint256",
          "name": "",
          "type": "uint256"
        }
      ],
      "stateMutability": "view",
      "type": "function"
    },
    {
      "inputs": [],
      "name": "_paused",
      "outputs": [
        {
          "internalType": "bool",
          "name": "",
          "type": "bool"
        }
      ],
      "stateMutability": "view",
      "type": "function"
    },
    {
      "inputs": [
        {
          "internalType": "address",
          "name": "to",
          "type": "address"
        },
        {
          "internalType": "uint256",
          "name": "tokenId",
          "type": "uint256"
        }
      ],
      "name": "approve",
      "outputs": [],
      "stateMutability": "nonpayable",
      "type": "function"
    },
    {
      "inputs": [
        {
          "internalType": "address",
          "name": "owner",
          "type": "address"
        }
      ],
      "name": "balanceOf",
      "outputs": [
        {
          "internalType": "uint256",
          "name": "",
          "type": "uint256"
        }
      ],
      "stateMutability": "view",
      "type": "function"
    },
    {
      "inputs": [
        {
          "internalType": "string",
          "name": "a",
          "type": "string"
        },
        {
          "internalType": "string",
          "name": "b",
          "type": "string"
        }
      ],
      "name": "concatenate",
      "outputs": [
        {
          "internalType": "string",
          "name": "",
          "type": "string"
        }
      ],
      "stateMutability": "pure",
      "type": "function"
    },
    {
      "inputs": [
        {
          "internalType": "uint256",
          "name": "tokenId",
          "type": "uint256"
        }
      ],
      "name": "getAllowedAddress",
      "outputs": [
        {
          "internalType": "address[]",
          "name": "",
          "type": "address[]"
        }
      ],
      "stateMutability": "view",
      "type": "function"
    },
    {
      "inputs": [
        {
          "internalType": "uint256",
          "name": "tokenId",
          "type": "uint256"
        }
      ],
      "name": "getApproved",
      "outputs": [
        {
          "internalType": "address",
          "name": "",
          "type": "address"
        }
      ],
      "stateMutability": "view",
      "type": "function"
    },
    {
      "inputs": [],
      "name": "getContractBalance",
      "outputs": [
        {
          "internalType": "uint256",
          "name": "",
          "type": "uint256"
        }
      ],
      "stateMutability": "view",
      "type": "function"
    },
    {
      "inputs": [
        {
          "internalType": "string",
          "name": "a2",
          "type": "string"
        },
        {
          "internalType": "uint256",
          "name": "b2",
          "type": "uint256"
        }
      ],
      "name": "getFinalString",
      "outputs": [
        {
          "internalType": "string",
          "name": "",
          "type": "string"
        }
      ],
      "stateMutability": "pure",
      "type": "function"
    },
    {
      "inputs": [],
      "name": "getOwnerDetails",
      "outputs": [
        {
          "components": [
            {
              "internalType": "bytes32",
              "name": "_ownerName",
              "type": "bytes32"
            },
            {
              "internalType": "address payable",
              "name": "_ownerAddress",
              "type": "address"
            },
            {
              "internalType": "uint256",
              "name": "_ownerAge",
              "type": "uint256"
            },
            {
              "internalType": "bytes32",
              "name": "_ownerBloodGroup",
              "type": "bytes32"
            },
            {
              "internalType": "bytes32",
              "name": "_ownerAllergies",
              "type": "bytes32"
            },
            {
              "internalType": "bytes32",
              "name": "_ownerMedication",
              "type": "bytes32"
            },
            {
              "internalType": "bytes32",
              "name": "_ownerAbout",
              "type": "bytes32"
            }
          ],
          "internalType": "struct TokenFactory.ownerDetailsType",
          "name": "",
          "type": "tuple"
        }
      ],
      "stateMutability": "view",
      "type": "function"
    },
    {
      "inputs": [
        {
          "internalType": "uint256",
          "name": "",
          "type": "uint256"
        }
      ],
      "name": "id_TokenAccessDetailMapping",
      "outputs": [
        {
          "internalType": "bool",
          "name": "_is_public",
          "type": "bool"
        },
        {
          "internalType": "uint256",
          "name": "_price",
          "type": "uint256"
        }
      ],
      "stateMutability": "view",
      "type": "function"
    },
    {
      "inputs": [
        {
          "internalType": "uint256",
          "name": "",
          "type": "uint256"
        }
      ],
      "name": "id_TokenDetailMapping",
      "outputs": [
        {
          "internalType": "address payable",
          "name": "_addressOfOwner",
          "type": "address"
        },
        {
          "internalType": "uint256",
          "name": "_tokenId",
          "type": "uint256"
        },
        {
          "internalType": "string",
          "name": "_dataDescription",
          "type": "string"
        },
        {
          "internalType": "string",
          "name": "_dataUrl",
          "type": "string"
        }
      ],
      "stateMutability": "view",
      "type": "function"
    },
    {
      "inputs": [
        {
          "internalType": "address",
          "name": "owner",
          "type": "address"
        },
        {
          "internalType": "address",
          "name": "operator",
          "type": "address"
        }
      ],
      "name": "isApprovedForAll",
      "outputs": [
        {
          "internalType": "bool",
          "name": "",
          "type": "bool"
        }
      ],
      "stateMutability": "view",
      "type": "function"
    },
    {
      "inputs": [
        {
          "internalType": "address[]",
          "name": "myArray",
          "type": "address[]"
        },
        {
          "internalType": "address",
          "name": "myAddress",
          "type": "address"
        }
      ],
      "name": "isInArray",
      "outputs": [
        {
          "internalType": "bool",
          "name": "",
          "type": "bool"
        }
      ],
      "stateMutability": "pure",
      "type": "function"
    },
    {
      "inputs": [
        {
          "internalType": "uint256",
          "name": "tokenId",
          "type": "uint256"
        },
        {
          "internalType": "address",
          "name": "userAddress",
          "type": "address"
        }
      ],
      "name": "isUserValid",
      "outputs": [
        {
          "internalType": "bool",
          "name": "",
          "type": "bool"
        }
      ],
      "stateMutability": "view",
      "type": "function"
    },
    {
      "inputs": [],
      "name": "maxTokenIds",
      "outputs": [
        {
          "internalType": "uint256",
          "name": "",
          "type": "uint256"
        }
      ],
      "stateMutability": "view",
      "type": "function"
    },
    {
      "inputs": [
        {
          "internalType": "string",
          "name": "dataDescription",
          "type": "string"
        },
        {
          "internalType": "string",
          "name": "dataUrl",
          "type": "string"
        }
      ],
      "name": "mint",
      "outputs": [
        {
          "internalType": "uint256",
          "name": "",
          "type": "uint256"
        }
      ],
      "stateMutability": "payable",
      "type": "function"
    },
    {
      "inputs": [],
      "name": "name",
      "outputs": [
        {
          "internalType": "string",
          "name": "",
          "type": "string"
        }
      ],
      "stateMutability": "view",
      "type": "function"
    },
    {
      "inputs": [],
      "name": "owner",
      "outputs": [
        {
          "internalType": "address",
          "name": "",
          "type": "address"
        }
      ],
      "stateMutability": "view",
      "type": "function"
    },
    {
      "inputs": [],
      "name": "ownerDetails",
      "outputs": [
        {
          "internalType": "bytes32",
          "name": "_ownerName",
          "type": "bytes32"
        },
        {
          "internalType": "address payable",
          "name": "_ownerAddress",
          "type": "address"
        },
        {
          "internalType": "uint256",
          "name": "_ownerAge",
          "type": "uint256"
        },
        {
          "internalType": "bytes32",
          "name": "_ownerBloodGroup",
          "type": "bytes32"
        },
        {
          "internalType": "bytes32",
          "name": "_ownerAllergies",
          "type": "bytes32"
        },
        {
          "internalType": "bytes32",
          "name": "_ownerMedication",
          "type": "bytes32"
        },
        {
          "internalType": "bytes32",
          "name": "_ownerAbout",
          "type": "bytes32"
        }
      ],
      "stateMutability": "view",
      "type": "function"
    },
    {
      "inputs": [
        {
          "internalType": "uint256",
          "name": "tokenId",
          "type": "uint256"
        }
      ],
      "name": "ownerOf",
      "outputs": [
        {
          "internalType": "address",
          "name": "",
          "type": "address"
        }
      ],
      "stateMutability": "view",
      "type": "function"
    },
    {
      "inputs": [],
      "name": "renounceOwnership",
      "outputs": [],
      "stateMutability": "nonpayable",
      "type": "function"
    },
    {
      "inputs": [
        {
          "internalType": "uint256",
          "name": "_tokenId",
          "type": "uint256"
        },
        {
          "internalType": "address[]",
          "name": "_addresses",
          "type": "address[]"
        }
      ],
      "name": "replaceAllowedAddress",
      "outputs": [],
      "stateMutability": "nonpayable",
      "type": "function"
    },
    {
      "inputs": [
        {
          "internalType": "address",
          "name": "from",
          "type": "address"
        },
        {
          "internalType": "address",
          "name": "to",
          "type": "address"
        },
        {
          "internalType": "uint256",
          "name": "tokenId",
          "type": "uint256"
        }
      ],
      "name": "safeTransferFrom",
      "outputs": [],
      "stateMutability": "nonpayable",
      "type": "function"
    },
    {
      "inputs": [
        {
          "internalType": "address",
          "name": "from",
          "type": "address"
        },
        {
          "internalType": "address",
          "name": "to",
          "type": "address"
        },
        {
          "internalType": "uint256",
          "name": "tokenId",
          "type": "uint256"
        },
        {
          "internalType": "bytes",
          "name": "data",
          "type": "bytes"
        }
      ],
      "name": "safeTransferFrom",
      "outputs": [],
      "stateMutability": "nonpayable",
      "type": "function"
    },
    {
      "inputs": [
        {
          "internalType": "address",
          "name": "operator",
          "type": "address"
        },
        {
          "internalType": "bool",
          "name": "approved",
          "type": "bool"
        }
      ],
      "name": "setApprovalForAll",
      "outputs": [],
      "stateMutability": "nonpayable",
      "type": "function"
    },
    {
      "inputs": [
        {
          "internalType": "uint256",
          "name": "_tokenId",
          "type": "uint256"
        },
        {
          "internalType": "bool",
          "name": "_is_public",
          "type": "bool"
        }
      ],
      "name": "setIsPublic",
      "outputs": [],
      "stateMutability": "nonpayable",
      "type": "function"
    },
    {
      "inputs": [
        {
          "internalType": "bool",
          "name": "val",
          "type": "bool"
        }
      ],
      "name": "setPaused",
      "outputs": [],
      "stateMutability": "nonpayable",
      "type": "function"
    },
    {
      "inputs": [
        {
          "internalType": "uint256",
          "name": "_tokenId",
          "type": "uint256"
        },
        {
          "internalType": "uint256",
          "name": "new_price",
          "type": "uint256"
        }
      ],
      "name": "setPrice",
      "outputs": [],
      "stateMutability": "nonpayable",
      "type": "function"
    },
    {
      "inputs": [
        {
          "internalType": "bytes4",
          "name": "interfaceId",
          "type": "bytes4"
        }
      ],
      "name": "supportsInterface",
      "outputs": [
        {
          "internalType": "bool",
          "name": "",
          "type": "bool"
        }
      ],
      "stateMutability": "view",
      "type": "function"
    },
    {
      "inputs": [],
      "name": "symbol",
      "outputs": [
        {
          "internalType": "string",
          "name": "",
          "type": "string"
        }
      ],
      "stateMutability": "view",
      "type": "function"
    },
    {
      "inputs": [
        {
          "internalType": "uint256",
          "name": "index",
          "type": "uint256"
        }
      ],
      "name": "tokenByIndex",
      "outputs": [
        {
          "internalType": "uint256",
          "name": "",
          "type": "uint256"
        }
      ],
      "stateMutability": "view",
      "type": "function"
    },
    {
      "inputs": [],
      "name": "tokenIds",
      "outputs": [
        {
          "internalType": "uint256",
          "name": "",
          "type": "uint256"
        }
      ],
      "stateMutability": "view",
      "type": "function"
    },
    {
      "inputs": [
        {
          "internalType": "address",
          "name": "owner",
          "type": "address"
        },
        {
          "internalType": "uint256",
          "name": "index",
          "type": "uint256"
        }
      ],
      "name": "tokenOfOwnerByIndex",
      "outputs": [
        {
          "internalType": "uint256",
          "name": "",
          "type": "uint256"
        }
      ],
      "stateMutability": "view",
      "type": "function"
    },
    {
      "inputs": [
        {
          "internalType": "uint256",
          "name": "tokenId",
          "type": "uint256"
        }
      ],
      "name": "tokenURI",
      "outputs": [
        {
          "internalType": "string",
          "name": "",
          "type": "string"
        }
      ],
      "stateMutability": "view",
      "type": "function"
    },
    {
      "inputs": [],
      "name": "totalSupply",
      "outputs": [
        {
          "internalType": "uint256",
          "name": "",
          "type": "uint256"
        }
      ],
      "stateMutability": "view",
      "type": "function"
    },
    {
      "inputs": [
        {
          "internalType": "address",
          "name": "from",
          "type": "address"
        },
        {
          "internalType": "address",
          "name": "to",
          "type": "address"
        },
        {
          "internalType": "uint256",
          "name": "tokenId",
          "type": "uint256"
        }
      ],
      "name": "transferFrom",
      "outputs": [],
      "stateMutability": "nonpayable",
      "type": "function"
    },
    {
      "inputs": [
        {
          "internalType": "address",
          "name": "newOwner",
          "type": "address"
        }
      ],
      "name": "transferOwnership",
      "outputs": [],
      "stateMutability": "nonpayable",
      "type": "function"
    },
    {
      "stateMutability": "payable",
      "type": "receive"
    }
  ],
  "bytecode": "0x608060405260646015553480156200001657600080fd5b5060405162005bb438038062005bb483398181016040528101906200003c9190620007c3565b620000836040518060400160405280600d81526020017f546f6b656e20466163746f727900000000000000000000000000000000000000815250826200020f60201b60201c565b620000ca6040518060400160405280600281526020017f5446000000000000000000000000000000000000000000000000000000000000815250836200020f60201b60201c565b8160009081620000db919062000b12565b508060019081620000ed919062000b12565b50505062000110620001046200024660201b60201c565b6200024e60201b60201c565b88600b81905550806013819055506040518060e001604052808981526020018873ffffffffffffffffffffffffffffffffffffffff16815260200187815260200186815260200185815260200184815260200183815250600c6000820151816000015560208201518160010160006101000a81548173ffffffffffffffffffffffffffffffffffffffff021916908373ffffffffffffffffffffffffffffffffffffffff16021790555060408201518160020155606082015181600301556080820151816004015560a0820151816005015560c0820151816006015590505062000200876200031460201b60201c565b50505050505050505062000e36565b606060006200022983620003aa60201b62001ad81760201c565b90506200023d84826200048e60201b60201c565b91505092915050565b600033905090565b6000600a60009054906101000a900473ffffffffffffffffffffffffffffffffffffffff16905081600a60006101000a81548173ffffffffffffffffffffffffffffffffffffffff021916908373ffffffffffffffffffffffffffffffffffffffff1602179055508173ffffffffffffffffffffffffffffffffffffffff168173ffffffffffffffffffffffffffffffffffffffff167f8be0079c531659141344cd1fd0a4f28419497f9722a3daafe3b4186f6b6457e060405160405180910390a35050565b62000324620004bc60201b60201c565b600073ffffffffffffffffffffffffffffffffffffffff168173ffffffffffffffffffffffffffffffffffffffff160362000396576040517f08c379a00000000000000000000000000000000000000000000000000000000081526004016200038d9062000c80565b60405180910390fd5b620003a7816200024e60201b60201c565b50565b606060006001620003c6846200054d60201b62001ba61760201c565b01905060008167ffffffffffffffff811115620003e857620003e7620008ad565b5b6040519080825280601f01601f1916602001820160405280156200041b5781602001600182028036833780820191505090505b509050600082602001820190505b60011562000483578080600190039150507f3031323334353637383961626364656600000000000000000000000000000000600a86061a8153600a858162000476576200047562000ca2565b5b0494506000850362000429575b819350505050919050565b60608282604051602001620004a592919062000d8f565b604051602081830303815290604052905092915050565b620004cc6200024660201b60201c565b73ffffffffffffffffffffffffffffffffffffffff16620004f2620006b960201b60201c565b73ffffffffffffffffffffffffffffffffffffffff16146200054b576040517f08c379a0000000000000000000000000000000000000000000000000000000008152600401620005429062000e14565b60405180910390fd5b565b600080600090507a184f03e93ff9f4daa797ed6e38ed64bf6a1f0100000000000000008310620005af577a184f03e93ff9f4daa797ed6e38ed64bf6a1f0100000000000000008381620005a557620005a462000ca2565b5b0492506040810190505b6d04ee2d6d415b85acef81000000008310620005f0576d04ee2d6d415b85acef81000000008381620005e657620005e562000ca2565b5b0492506020810190505b662386f26fc1000083106200062357662386f26fc10000838162000619576200061862000ca2565b5b0492506010810190505b6305f5e100831062000650576305f5e100838162000646576200064562000ca2565b5b0492506008810190505b6127108310620006795761271083816200066f576200066e62000ca2565b5b0492506004810190505b60648310620006a0576064838162000696576200069562000ca2565b5b0492506002810190505b600a8310620006b0576001810190505b80915050919050565b6000600a60009054906101000a900473ffffffffffffffffffffffffffffffffffffffff16905090565b600080fd5b6000819050919050565b620006fd81620006e8565b81146200070957600080fd5b50565b6000815190506200071d81620006f2565b92915050565b600073ffffffffffffffffffffffffffffffffffffffff82169050919050565b6000620007508262000723565b9050919050565b620007628162000743565b81146200076e57600080fd5b50565b600081519050620007828162000757565b92915050565b6000819050919050565b6200079d8162000788565b8114620007a957600080fd5b50565b600081519050620007bd8162000792565b92915050565b60008060008060008060008060006101208a8c031215620007e957620007e8620006e3565b5b6000620007f98c828d016200070c565b99505060206200080c8c828d016200070c565b98505060406200081f8c828d0162000771565b9750506060620008328c828d01620007ac565b9650506080620008458c828d016200070c565b95505060a0620008588c828d016200070c565b94505060c06200086b8c828d016200070c565b93505060e06200087e8c828d016200070c565b925050610100620008928c828d01620007ac565b9150509295985092959850929598565b600081519050919050565b7f4e487b7100000000000000000000000000000000000000000000000000000000600052604160045260246000fd5b7f4e487b7100000000000000000000000000000000000000000000000000000000600052602260045260246000fd5b600060028204905060018216806200092457607f821691505b6020821081036200093a5762000939620008dc565b5b50919050565b60008190508160005260206000209050919050565b60006020601f8301049050919050565b600082821b905092915050565b600060088302620009a47fffffffffffffffffffffffffffffffffffffffffffffffffffffffffffffffff8262000965565b620009b0868362000965565b95508019841693508086168417925050509392505050565b6000819050919050565b6000620009f3620009ed620009e78462000788565b620009c8565b62000788565b9050919050565b6000819050919050565b62000a0f83620009d2565b62000a2762000a1e82620009fa565b84845462000972565b825550505050565b600090565b62000a3e62000a2f565b62000a4b81848462000a04565b505050565b5b8181101562000a735762000a6760008262000a34565b60018101905062000a51565b5050565b601f82111562000ac25762000a8c8162000940565b62000a978462000955565b8101602085101562000aa7578190505b62000abf62000ab68562000955565b83018262000a50565b50505b505050565b600082821c905092915050565b600062000ae76000198460080262000ac7565b1980831691505092915050565b600062000b02838362000ad4565b9150826002028217905092915050565b62000b1d82620008a2565b67ffffffffffffffff81111562000b395762000b38620008ad565b5b62000b4582546200090b565b62000b5282828562000a77565b600060209050601f83116001811462000b8a576000841562000b75578287015190505b62000b81858262000af4565b86555062000bf1565b601f19841662000b9a8662000940565b60005b8281101562000bc45784890151825560018201915060208501945060208101905062000b9d565b8683101562000be4578489015162000be0601f89168262000ad4565b8355505b6001600288020188555050505b505050505050565b600082825260208201905092915050565b7f4f776e61626c653a206e6577206f776e657220697320746865207a65726f206160008201527f6464726573730000000000000000000000000000000000000000000000000000602082015250565b600062000c6860268362000bf9565b915062000c758262000c0a565b604082019050919050565b6000602082019050818103600083015262000c9b8162000c59565b9050919050565b7f4e487b7100000000000000000000000000000000000000000000000000000000600052601260045260246000fd5b600081905092915050565b60005b8381101562000cfc57808201518184015260208101905062000cdf565b60008484015250505050565b600062000d1582620008a2565b62000d21818562000cd1565b935062000d3381856020860162000cdc565b80840191505092915050565b7f2000000000000000000000000000000000000000000000000000000000000000600082015250565b600062000d7760018362000cd1565b915062000d848262000d3f565b600182019050919050565b600062000d9d828562000d08565b915062000daa8262000d68565b915062000db8828462000d08565b91508190509392505050565b7f4f776e61626c653a2063616c6c6572206973206e6f7420746865206f776e6572600082015250565b600062000dfc60208362000bf9565b915062000e098262000dc4565b602082019050919050565b6000602082019050818103600083015262000e2f8162000ded565b9050919050565b614d6e8062000e466000396000f3fe6080604052600436106102295760003560e01c806370a0823111610123578063a22cb465116100ab578063ca52f2d81161006f578063ca52f2d81461087f578063e985e9c5146108bc578063ef725d81146108f9578063f2fde38b14610937578063f7d975771461096057610230565b8063a22cb46514610782578063a8ef9861146107ab578063b3cee131146107e8578063b88d4fde14610819578063c87b56dd1461084257610230565b806380b2284f116100f257806380b2284f146106945780638296a2e8146106d15780638aa0fdad146106fc5780638da5cb5b1461072c57806395d89b411461075757610230565b806370a08231146105d8578063714cff5614610615578063715018a6146106405780637df43b821461065757610230565b8063266001d3116101b1578063512cf8aa11610175578063512cf8aa146104f35780635f7696211461051c5780636352211e1461054757806364caf0f3146105845780636f9fb98a146105ad57610230565b8063266001d3146103e85780632f745c59146104255780633c4717251461046257806342842e0e1461048d5780634f6ccce7146104b657610230565b806312834c97116101f857806312834c971461030057806316c38b3c1461034057806316c61ccc1461036957806318160ddd1461039457806323b872dd146103bf57610230565b806301ffc9a71461023257806306fdde031461026f578063081812fc1461029a578063095ea7b3146102d757610230565b3661023057005b005b34801561023e57600080fd5b50610259600480360381019061025491906131c5565b610989565b604051610266919061320d565b60405180910390f35b34801561027b57600080fd5b50610284610a03565b60405161029191906132b8565b60405180910390f35b3480156102a657600080fd5b506102c160048036038101906102bc9190613310565b610a95565b6040516102ce919061337e565b60405180910390f35b3480156102e357600080fd5b506102fe60048036038101906102f991906133c5565b610adb565b005b34801561030c57600080fd5b5061032760048036038101906103229190613310565b610bf2565b6040516103379493929190613435565b60405180910390f35b34801561034c57600080fd5b50610367600480360381019061036291906134b4565b610d52565b005b34801561037557600080fd5b5061037e610d77565b60405161038b919061320d565b60405180910390f35b3480156103a057600080fd5b506103a9610d8a565b6040516103b691906134e1565b60405180910390f35b3480156103cb57600080fd5b506103e660048036038101906103e191906134fc565b610d97565b005b3480156103f457600080fd5b5061040f600480360381019061040a9190613684565b610df7565b60405161041c91906132b8565b60405180910390f35b34801561043157600080fd5b5061044c600480360381019061044791906133c5565b610e23565b60405161045991906134e1565b60405180910390f35b34801561046e57600080fd5b50610477610ec8565b60405161048491906137c1565b60405180910390f35b34801561049957600080fd5b506104b460048036038101906104af91906134fc565b610f74565b005b3480156104c257600080fd5b506104dd60048036038101906104d89190613310565b610f94565b6040516104ea91906134e1565b60405180910390f35b3480156104ff57600080fd5b5061051a600480360381019061051591906138a4565b611005565b005b34801561052857600080fd5b5061053161103c565b60405161053e91906134e1565b60405180910390f35b34801561055357600080fd5b5061056e60048036038101906105699190613310565b611042565b60405161057b919061337e565b60405180910390f35b34801561059057600080fd5b506105ab60048036038101906105a69190613900565b6110c8565b005b3480156105b957600080fd5b506105c2611102565b6040516105cf91906134e1565b60405180910390f35b3480156105e457600080fd5b506105ff60048036038101906105fa9190613940565b611112565b60405161060c91906134e1565b60405180910390f35b34801561062157600080fd5b5061062a6111c9565b60405161063791906134e1565b60405180910390f35b34801561064c57600080fd5b506106556111cf565b005b34801561066357600080fd5b5061067e6004803603810190610679919061396d565b6111e3565b60405161068b91906132b8565b60405180910390f35b3480156106a057600080fd5b506106bb60048036038101906106b691906139c9565b611205565b6040516106c8919061320d565b60405180910390f35b3480156106dd57600080fd5b506106e661128c565b6040516106f391906134e1565b60405180910390f35b61071660048036038101906107119190613684565b611292565b60405161072391906134e1565b60405180910390f35b34801561073857600080fd5b50610741611586565b60405161074e919061337e565b60405180910390f35b34801561076357600080fd5b5061076c6115b0565b60405161077991906132b8565b60405180910390f35b34801561078e57600080fd5b506107a960048036038101906107a49190613a25565b611642565b005b3480156107b757600080fd5b506107d260048036038101906107cd9190613310565b611658565b6040516107df9190613b23565b60405180910390f35b3480156107f457600080fd5b506107fd6116fc565b6040516108109796959493929190613b54565b60405180910390f35b34801561082557600080fd5b50610840600480360381019061083b9190613c64565b61174c565b005b34801561084e57600080fd5b5061086960048036038101906108649190613310565b6117ae565b60405161087691906132b8565b60405180910390f35b34801561088b57600080fd5b506108a660048036038101906108a19190613ce7565b611816565b6040516108b3919061320d565b60405180910390f35b3480156108c857600080fd5b506108e360048036038101906108de9190613d27565b611969565b6040516108f0919061320d565b60405180910390f35b34801561090557600080fd5b50610920600480360381019061091b9190613310565b6119fd565b60405161092e929190613d67565b60405180910390f35b34801561094357600080fd5b5061095e60048036038101906109599190613940565b611a2e565b005b34801561096c57600080fd5b5061098760048036038101906109829190613d90565b611ab1565b005b60007f780e9d63000000000000000000000000000000000000000000000000000000007bffffffffffffffffffffffffffffffffffffffffffffffffffffffff1916827bffffffffffffffffffffffffffffffffffffffffffffffffffffffff191614806109fc57506109fb82611cf9565b5b9050919050565b606060008054610a1290613dff565b80601f0160208091040260200160405190810160405280929190818152602001828054610a3e90613dff565b8015610a8b5780601f10610a6057610100808354040283529160200191610a8b565b820191906000526020600020905b815481529060010190602001808311610a6e57829003601f168201915b5050505050905090565b6000610aa082611ddb565b6004600083815260200190815260200160002060009054906101000a900473ffffffffffffffffffffffffffffffffffffffff169050919050565b6000610ae682611042565b90508073ffffffffffffffffffffffffffffffffffffffff168373ffffffffffffffffffffffffffffffffffffffff1603610b56576040517f08c379a0000000000000000000000000000000000000000000000000000000008152600401610b4d90613ea2565b60405180910390fd5b8073ffffffffffffffffffffffffffffffffffffffff16610b75611e26565b73ffffffffffffffffffffffffffffffffffffffff161480610ba45750610ba381610b9e611e26565b611969565b5b610be3576040517f08c379a0000000000000000000000000000000000000000000000000000000008152600401610bda90613f34565b60405180910390fd5b610bed8383611e2e565b505050565b60176020528060005260406000206000915090508060000160009054906101000a900473ffffffffffffffffffffffffffffffffffffffff1690806001015490806002018054610c4190613dff565b80601f0160208091040260200160405190810160405280929190818152602001828054610c6d90613dff565b8015610cba5780601f10610c8f57610100808354040283529160200191610cba565b820191906000526020600020905b815481529060010190602001808311610c9d57829003601f168201915b505050505090806003018054610ccf90613dff565b80601f0160208091040260200160405190810160405280929190818152602001828054610cfb90613dff565b8015610d485780601f10610d1d57610100808354040283529160200191610d48565b820191906000526020600020905b815481529060010190602001808311610d2b57829003601f168201915b5050505050905084565b610d5a611ee7565b80601460006101000a81548160ff02191690831515021790555050565b601460009054906101000a900460ff1681565b6000600880549050905090565b610da8610da2611e26565b82611f65565b610de7576040517f08c379a0000000000000000000000000000000000000000000000000000000008152600401610dde90613fc6565b60405180910390fd5b610df2838383611ffa565b505050565b60608282604051602001610e0c92919061406e565b604051602081830303815290604052905092915050565b6000610e2e83611112565b8210610e6f576040517f08c379a0000000000000000000000000000000000000000000000000000000008152600401610e669061410f565b60405180910390fd5b600660008473ffffffffffffffffffffffffffffffffffffffff1673ffffffffffffffffffffffffffffffffffffffff168152602001908152602001600020600083815260200190815260200160002054905092915050565b610ed0613050565b600c6040518060e0016040529081600082015481526020016001820160009054906101000a900473ffffffffffffffffffffffffffffffffffffffff1673ffffffffffffffffffffffffffffffffffffffff1673ffffffffffffffffffffffffffffffffffffffff16815260200160028201548152602001600382015481526020016004820154815260200160058201548152602001600682015481525050905090565b610f8f8383836040518060200160405280600081525061174c565b505050565b6000610f9e610d8a565b8210610fdf576040517f08c379a0000000000000000000000000000000000000000000000000000000008152600401610fd6906141a1565b60405180910390fd5b60088281548110610ff357610ff26141c1565b5b90600052602060002001549050919050565b61100d611ee7565b806018600084815260200190815260200160002060020190805190602001906110379291906130b2565b505050565b60155481565b60008061104e836122f3565b9050600073ffffffffffffffffffffffffffffffffffffffff168173ffffffffffffffffffffffffffffffffffffffff16036110bf576040517f08c379a00000000000000000000000000000000000000000000000000000000081526004016110b69061423c565b60405180910390fd5b80915050919050565b6110d0611ee7565b806018600084815260200190815260200160002060000160006101000a81548160ff0219169083151502179055505050565b600061110c611ee7565b47905090565b60008073ffffffffffffffffffffffffffffffffffffffff168273ffffffffffffffffffffffffffffffffffffffff1603611182576040517f08c379a0000000000000000000000000000000000000000000000000000000008152600401611179906142ce565b60405180910390fd5b600360008373ffffffffffffffffffffffffffffffffffffffff1673ffffffffffffffffffffffffffffffffffffffff168152602001908152602001600020549050919050565b60165481565b6111d7611ee7565b6111e16000612330565b565b606060006111f083611ad8565b90506111fc8482610df7565b91505092915050565b600080600090505b8351811015611280578273ffffffffffffffffffffffffffffffffffffffff168482815181106112405761123f6141c1565b5b602002602001015173ffffffffffffffffffffffffffffffffffffffff160361126d576001915050611286565b80806112789061431d565b91505061120d565b50600090505b92915050565b60135481565b6000601460009054906101000a900460ff16156112e4576040517f08c379a00000000000000000000000000000000000000000000000000000000081526004016112db906143b1565b60405180910390fd5b6112ec611ee7565b600c60010160009054906101000a900473ffffffffffffffffffffffffffffffffffffffff1673ffffffffffffffffffffffffffffffffffffffff163373ffffffffffffffffffffffffffffffffffffffff161461134957600080fd5b6015546016541061138f576040517f08c379a000000000000000000000000000000000000000000000000000000000815260040161138690614443565b60405180910390fd5b6001601660008282546113a29190614463565b925050819055506113b5336016546123f6565b60006040518060800160405280600c60010160009054906101000a900473ffffffffffffffffffffffffffffffffffffffff1673ffffffffffffffffffffffffffffffffffffffff16815260200160165481526020018581526020018481525090506000604051806060016040528060001515815260200160008152602001600067ffffffffffffffff81111561144f5761144e613559565b5b60405190808252806020026020018201604052801561147d5781602001602082028036833780820191505090505b5081525090508160176000601654815260200190815260200160002060008201518160000160006101000a81548173ffffffffffffffffffffffffffffffffffffffff021916908373ffffffffffffffffffffffffffffffffffffffff1602179055506020820151816001015560408201518160020190816114ff9190614643565b5060608201518160030190816115159190614643565b509050508060186000601654815260200190815260200160002060008201518160000160006101000a81548160ff0219169083151502179055506020820151816001015560408201518160020190805190602001906115759291906130b2565b509050506016549250505092915050565b6000600a60009054906101000a900473ffffffffffffffffffffffffffffffffffffffff16905090565b6060600180546115bf90613dff565b80601f01602080910402602001604051908101604052809291908181526020018280546115eb90613dff565b80156116385780601f1061160d57610100808354040283529160200191611638565b820191906000526020600020905b81548152906001019060200180831161161b57829003601f168201915b5050505050905090565b61165461164d611e26565b8383612414565b5050565b6060601860008381526020019081526020016000206002018054806020026020016040519081016040528092919081815260200182805480156116f057602002820191906000526020600020905b8160009054906101000a900473ffffffffffffffffffffffffffffffffffffffff1673ffffffffffffffffffffffffffffffffffffffff16815260200190600101908083116116a6575b50505050509050919050565b600c8060000154908060010160009054906101000a900473ffffffffffffffffffffffffffffffffffffffff16908060020154908060030154908060040154908060050154908060060154905087565b61175d611757611e26565b83611f65565b61179c576040517f08c379a000000000000000000000000000000000000000000000000000000000815260040161179390613fc6565b60405180910390fd5b6117a884848484612580565b50505050565b60606117b982611ddb565b60006117c36125dc565b905060008151116117e3576040518060200160405280600081525061180e565b806117ed84611ad8565b6040516020016117fe929190614715565b6040516020818303038152906040525b915050919050565b60008173ffffffffffffffffffffffffffffffffffffffff166017600085815260200190815260200160002060000160009054906101000a900473ffffffffffffffffffffffffffffffffffffffff1673ffffffffffffffffffffffffffffffffffffffff160361188a5760019050611963565b6018600084815260200190815260200160002060000160009054906101000a900460ff16156118bc5760019050611963565b6119606018600085815260200190815260200160002060020180548060200260200160405190810160405280929190818152602001828054801561195557602002820191906000526020600020905b8160009054906101000a900473ffffffffffffffffffffffffffffffffffffffff1673ffffffffffffffffffffffffffffffffffffffff168152602001906001019080831161190b575b505050505083611205565b90505b92915050565b6000600560008473ffffffffffffffffffffffffffffffffffffffff1673ffffffffffffffffffffffffffffffffffffffff16815260200190815260200160002060008373ffffffffffffffffffffffffffffffffffffffff1673ffffffffffffffffffffffffffffffffffffffff16815260200190815260200160002060009054906101000a900460ff16905092915050565b60186020528060005260406000206000915090508060000160009054906101000a900460ff16908060010154905082565b611a36611ee7565b600073ffffffffffffffffffffffffffffffffffffffff168173ffffffffffffffffffffffffffffffffffffffff1603611aa5576040517f08c379a0000000000000000000000000000000000000000000000000000000008152600401611a9c906147ab565b60405180910390fd5b611aae81612330565b50565b611ab9611ee7565b8060186000848152602001908152602001600020600101819055505050565b606060006001611ae784611ba6565b01905060008167ffffffffffffffff811115611b0657611b05613559565b5b6040519080825280601f01601f191660200182016040528015611b385781602001600182028036833780820191505090505b509050600082602001820190505b600115611b9b578080600190039150507f3031323334353637383961626364656600000000000000000000000000000000600a86061a8153600a8581611b8f57611b8e6147cb565b5b04945060008503611b46575b819350505050919050565b600080600090507a184f03e93ff9f4daa797ed6e38ed64bf6a1f0100000000000000008310611c04577a184f03e93ff9f4daa797ed6e38ed64bf6a1f0100000000000000008381611bfa57611bf96147cb565b5b0492506040810190505b6d04ee2d6d415b85acef81000000008310611c41576d04ee2d6d415b85acef81000000008381611c3757611c366147cb565b5b0492506020810190505b662386f26fc100008310611c7057662386f26fc100008381611c6657611c656147cb565b5b0492506010810190505b6305f5e1008310611c99576305f5e1008381611c8f57611c8e6147cb565b5b0492506008810190505b6127108310611cbe576127108381611cb457611cb36147cb565b5b0492506004810190505b60648310611ce15760648381611cd757611cd66147cb565b5b0492506002810190505b600a8310611cf0576001810190505b80915050919050565b60007f80ac58cd000000000000000000000000000000000000000000000000000000007bffffffffffffffffffffffffffffffffffffffffffffffffffffffff1916827bffffffffffffffffffffffffffffffffffffffffffffffffffffffff19161480611dc457507f5b5e139f000000000000000000000000000000000000000000000000000000007bffffffffffffffffffffffffffffffffffffffffffffffffffffffff1916827bffffffffffffffffffffffffffffffffffffffffffffffffffffffff1916145b80611dd45750611dd3826125f3565b5b9050919050565b611de48161265d565b611e23576040517f08c379a0000000000000000000000000000000000000000000000000000000008152600401611e1a9061423c565b60405180910390fd5b50565b600033905090565b816004600083815260200190815260200160002060006101000a81548173ffffffffffffffffffffffffffffffffffffffff021916908373ffffffffffffffffffffffffffffffffffffffff160217905550808273ffffffffffffffffffffffffffffffffffffffff16611ea183611042565b73ffffffffffffffffffffffffffffffffffffffff167f8c5be1e5ebec7d5bd14f71427d1e84f3dd0314c0f7b2291e5b200ac8c7c3b92560405160405180910390a45050565b611eef611e26565b73ffffffffffffffffffffffffffffffffffffffff16611f0d611586565b73ffffffffffffffffffffffffffffffffffffffff1614611f63576040517f08c379a0000000000000000000000000000000000000000000000000000000008152600401611f5a90614846565b60405180910390fd5b565b600080611f7183611042565b90508073ffffffffffffffffffffffffffffffffffffffff168473ffffffffffffffffffffffffffffffffffffffff161480611fb35750611fb28185611969565b5b80611ff157508373ffffffffffffffffffffffffffffffffffffffff16611fd984610a95565b73ffffffffffffffffffffffffffffffffffffffff16145b91505092915050565b8273ffffffffffffffffffffffffffffffffffffffff1661201a82611042565b73ffffffffffffffffffffffffffffffffffffffff1614612070576040517f08c379a0000000000000000000000000000000000000000000000000000000008152600401612067906148d8565b60405180910390fd5b600073ffffffffffffffffffffffffffffffffffffffff168273ffffffffffffffffffffffffffffffffffffffff16036120df576040517f08c379a00000000000000000000000000000000000000000000000000000000081526004016120d69061496a565b60405180910390fd5b6120ec838383600161269e565b8273ffffffffffffffffffffffffffffffffffffffff1661210c82611042565b73ffffffffffffffffffffffffffffffffffffffff1614612162576040517f08c379a0000000000000000000000000000000000000000000000000000000008152600401612159906148d8565b60405180910390fd5b6004600082815260200190815260200160002060006101000a81549073ffffffffffffffffffffffffffffffffffffffff02191690556001600360008573ffffffffffffffffffffffffffffffffffffffff1673ffffffffffffffffffffffffffffffffffffffff168152602001908152602001600020600082825403925050819055506001600360008473ffffffffffffffffffffffffffffffffffffffff1673ffffffffffffffffffffffffffffffffffffffff16815260200190815260200160002060008282540192505081905550816002600083815260200190815260200160002060006101000a81548173ffffffffffffffffffffffffffffffffffffffff021916908373ffffffffffffffffffffffffffffffffffffffff160217905550808273ffffffffffffffffffffffffffffffffffffffff168473ffffffffffffffffffffffffffffffffffffffff167fddf252ad1be2c89b69c2b068fc378daa952ba7f163c4a11628f55a4df523b3ef60405160405180910390a46122ee83838360016127fc565b505050565b60006002600083815260200190815260200160002060009054906101000a900473ffffffffffffffffffffffffffffffffffffffff169050919050565b6000600a60009054906101000a900473ffffffffffffffffffffffffffffffffffffffff16905081600a60006101000a81548173ffffffffffffffffffffffffffffffffffffffff021916908373ffffffffffffffffffffffffffffffffffffffff1602179055508173ffffffffffffffffffffffffffffffffffffffff168173ffffffffffffffffffffffffffffffffffffffff167f8be0079c531659141344cd1fd0a4f28419497f9722a3daafe3b4186f6b6457e060405160405180910390a35050565b612410828260405180602001604052806000815250612802565b5050565b8173ffffffffffffffffffffffffffffffffffffffff168373ffffffffffffffffffffffffffffffffffffffff1603612482576040517f08c379a0000000000000000000000000000000000000000000000000000000008152600401612479906149d6565b60405180910390fd5b80600560008573ffffffffffffffffffffffffffffffffffffffff1673ffffffffffffffffffffffffffffffffffffffff16815260200190815260200160002060008473ffffffffffffffffffffffffffffffffffffffff1673ffffffffffffffffffffffffffffffffffffffff16815260200190815260200160002060006101000a81548160ff0219169083151502179055508173ffffffffffffffffffffffffffffffffffffffff168373ffffffffffffffffffffffffffffffffffffffff167f17307eab39ab6107e8899845ad3d59bd9653f200f220920489ca2b5937696c3183604051612573919061320d565b60405180910390a3505050565b61258b848484611ffa565b6125978484848461285d565b6125d6576040517f08c379a00000000000000000000000000000000000000000000000000000000081526004016125cd90614a68565b60405180910390fd5b50505050565b606060405180602001604052806000815250905090565b60007f01ffc9a7000000000000000000000000000000000000000000000000000000007bffffffffffffffffffffffffffffffffffffffffffffffffffffffff1916827bffffffffffffffffffffffffffffffffffffffffffffffffffffffff1916149050919050565b60008073ffffffffffffffffffffffffffffffffffffffff1661267f836122f3565b73ffffffffffffffffffffffffffffffffffffffff1614159050919050565b6126aa848484846129e4565b60018111156126ee576040517f08c379a00000000000000000000000000000000000000000000000000000000081526004016126e590614afa565b60405180910390fd5b6000829050600073ffffffffffffffffffffffffffffffffffffffff168573ffffffffffffffffffffffffffffffffffffffff16036127355761273081612b0a565b612774565b8373ffffffffffffffffffffffffffffffffffffffff168573ffffffffffffffffffffffffffffffffffffffff1614612773576127728582612b53565b5b5b600073ffffffffffffffffffffffffffffffffffffffff168473ffffffffffffffffffffffffffffffffffffffff16036127b6576127b181612cc0565b6127f5565b8473ffffffffffffffffffffffffffffffffffffffff168473ffffffffffffffffffffffffffffffffffffffff16146127f4576127f38482612d91565b5b5b5050505050565b50505050565b61280c8383612e10565b612819600084848461285d565b612858576040517f08c379a000000000000000000000000000000000000000000000000000000000815260040161284f90614a68565b60405180910390fd5b505050565b600061287e8473ffffffffffffffffffffffffffffffffffffffff1661302d565b156129d7578373ffffffffffffffffffffffffffffffffffffffff1663150b7a026128a7611e26565b8786866040518563ffffffff1660e01b81526004016128c99493929190614b6f565b6020604051808303816000875af192505050801561290557506040513d601f19601f820116820180604052508101906129029190614bd0565b60015b612987573d8060008114612935576040519150601f19603f3d011682016040523d82523d6000602084013e61293a565b606091505b50600081510361297f576040517f08c379a000000000000000000000000000000000000000000000000000000000815260040161297690614a68565b60405180910390fd5b805181602001fd5b63150b7a0260e01b7bffffffffffffffffffffffffffffffffffffffffffffffffffffffff1916817bffffffffffffffffffffffffffffffffffffffffffffffffffffffff1916149150506129dc565b600190505b949350505050565b6001811115612b0457600073ffffffffffffffffffffffffffffffffffffffff168473ffffffffffffffffffffffffffffffffffffffff1614612a785780600360008673ffffffffffffffffffffffffffffffffffffffff1673ffffffffffffffffffffffffffffffffffffffff1681526020019081526020016000206000828254612a709190614bfd565b925050819055505b600073ffffffffffffffffffffffffffffffffffffffff168373ffffffffffffffffffffffffffffffffffffffff1614612b035780600360008573ffffffffffffffffffffffffffffffffffffffff1673ffffffffffffffffffffffffffffffffffffffff1681526020019081526020016000206000828254612afb9190614463565b925050819055505b5b50505050565b6008805490506009600083815260200190815260200160002081905550600881908060018154018082558091505060019003906000526020600020016000909190919091505550565b60006001612b6084611112565b612b6a9190614bfd565b9050600060076000848152602001908152602001600020549050818114612c4f576000600660008673ffffffffffffffffffffffffffffffffffffffff1673ffffffffffffffffffffffffffffffffffffffff168152602001908152602001600020600084815260200190815260200160002054905080600660008773ffffffffffffffffffffffffffffffffffffffff1673ffffffffffffffffffffffffffffffffffffffff168152602001908152602001600020600084815260200190815260200160002081905550816007600083815260200190815260200160002081905550505b6007600084815260200190815260200160002060009055600660008573ffffffffffffffffffffffffffffffffffffffff1673ffffffffffffffffffffffffffffffffffffffff16815260200190815260200160002060008381526020019081526020016000206000905550505050565b60006001600880549050612cd49190614bfd565b9050600060096000848152602001908152602001600020549050600060088381548110612d0457612d036141c1565b5b906000526020600020015490508060088381548110612d2657612d256141c1565b5b906000526020600020018190555081600960008381526020019081526020016000208190555060096000858152602001908152602001600020600090556008805480612d7557612d74614c31565b5b6001900381819060005260206000200160009055905550505050565b6000612d9c83611112565b905081600660008573ffffffffffffffffffffffffffffffffffffffff1673ffffffffffffffffffffffffffffffffffffffff168152602001908152602001600020600083815260200190815260200160002081905550806007600084815260200190815260200160002081905550505050565b600073ffffffffffffffffffffffffffffffffffffffff168273ffffffffffffffffffffffffffffffffffffffff1603612e7f576040517f08c379a0000000000000000000000000000000000000000000000000000000008152600401612e7690614cac565b60405180910390fd5b612e888161265d565b15612ec8576040517f08c379a0000000000000000000000000000000000000000000000000000000008152600401612ebf90614d18565b60405180910390fd5b612ed660008383600161269e565b612edf8161265d565b15612f1f576040517f08c379a0000000000000000000000000000000000000000000000000000000008152600401612f1690614d18565b60405180910390fd5b6001600360008473ffffffffffffffffffffffffffffffffffffffff1673ffffffffffffffffffffffffffffffffffffffff16815260200190815260200160002060008282540192505081905550816002600083815260200190815260200160002060006101000a81548173ffffffffffffffffffffffffffffffffffffffff021916908373ffffffffffffffffffffffffffffffffffffffff160217905550808273ffffffffffffffffffffffffffffffffffffffff16600073ffffffffffffffffffffffffffffffffffffffff167fddf252ad1be2c89b69c2b068fc378daa952ba7f163c4a11628f55a4df523b3ef60405160405180910390a46130296000838360016127fc565b5050565b6000808273ffffffffffffffffffffffffffffffffffffffff163b119050919050565b6040518060e0016040528060008019168152602001600073ffffffffffffffffffffffffffffffffffffffff16815260200160008152602001600080191681526020016000801916815260200160008019168152602001600080191681525090565b82805482825590600052602060002090810192821561312b579160200282015b8281111561312a5782518260006101000a81548173ffffffffffffffffffffffffffffffffffffffff021916908373ffffffffffffffffffffffffffffffffffffffff160217905550916020019190600101906130d2565b5b509050613138919061313c565b5090565b5b8082111561315557600081600090555060010161313d565b5090565b6000604051905090565b600080fd5b600080fd5b60007fffffffff0000000000000000000000000000000000000000000000000000000082169050919050565b6131a28161316d565b81146131ad57600080fd5b50565b6000813590506131bf81613199565b92915050565b6000602082840312156131db576131da613163565b5b60006131e9848285016131b0565b91505092915050565b60008115159050919050565b613207816131f2565b82525050565b600060208201905061322260008301846131fe565b92915050565b600081519050919050565b600082825260208201905092915050565b60005b83811015613262578082015181840152602081019050613247565b60008484015250505050565b6000601f19601f8301169050919050565b600061328a82613228565b6132948185613233565b93506132a4818560208601613244565b6132ad8161326e565b840191505092915050565b600060208201905081810360008301526132d2818461327f565b905092915050565b6000819050919050565b6132ed816132da565b81146132f857600080fd5b50565b60008135905061330a816132e4565b92915050565b60006020828403121561332657613325613163565b5b6000613334848285016132fb565b91505092915050565b600073ffffffffffffffffffffffffffffffffffffffff82169050919050565b60006133688261333d565b9050919050565b6133788161335d565b82525050565b6000602082019050613393600083018461336f565b92915050565b6133a28161335d565b81146133ad57600080fd5b50565b6000813590506133bf81613399565b92915050565b600080604083850312156133dc576133db613163565b5b60006133ea858286016133b0565b92505060206133fb858286016132fb565b9150509250929050565b60006134108261333d565b9050919050565b61342081613405565b82525050565b61342f816132da565b82525050565b600060808201905061344a6000830187613417565b6134576020830186613426565b8181036040830152613469818561327f565b9050818103606083015261347d818461327f565b905095945050505050565b613491816131f2565b811461349c57600080fd5b50565b6000813590506134ae81613488565b92915050565b6000602082840312156134ca576134c9613163565b5b60006134d88482850161349f565b91505092915050565b60006020820190506134f66000830184613426565b92915050565b60008060006060848603121561351557613514613163565b5b6000613523868287016133b0565b9350506020613534868287016133b0565b9250506040613545868287016132fb565b9150509250925092565b600080fd5b600080fd5b7f4e487b7100000000000000000000000000000000000000000000000000000000600052604160045260246000fd5b6135918261326e565b810181811067ffffffffffffffff821117156135b0576135af613559565b5b80604052505050565b60006135c3613159565b90506135cf8282613588565b919050565b600067ffffffffffffffff8211156135ef576135ee613559565b5b6135f88261326e565b9050602081019050919050565b82818337600083830152505050565b6000613627613622846135d4565b6135b9565b90508281526020810184848401111561364357613642613554565b5b61364e848285613605565b509392505050565b600082601f83011261366b5761366a61354f565b5b813561367b848260208601613614565b91505092915050565b6000806040838503121561369b5761369a613163565b5b600083013567ffffffffffffffff8111156136b9576136b8613168565b5b6136c585828601613656565b925050602083013567ffffffffffffffff8111156136e6576136e5613168565b5b6136f285828601613656565b9150509250929050565b6000819050919050565b61370f816136fc565b82525050565b61371e81613405565b82525050565b61372d816132da565b82525050565b60e0820160008201516137496000850182613706565b50602082015161375c6020850182613715565b50604082015161376f6040850182613724565b5060608201516137826060850182613706565b5060808201516137956080850182613706565b5060a08201516137a860a0850182613706565b5060c08201516137bb60c0850182613706565b50505050565b600060e0820190506137d66000830184613733565b92915050565b600067ffffffffffffffff8211156137f7576137f6613559565b5b602082029050602081019050919050565b600080fd5b600061382061381b846137dc565b6135b9565b9050808382526020820190506020840283018581111561384357613842613808565b5b835b8181101561386c578061385888826133b0565b845260208401935050602081019050613845565b5050509392505050565b600082601f83011261388b5761388a61354f565b5b813561389b84826020860161380d565b91505092915050565b600080604083850312156138bb576138ba613163565b5b60006138c9858286016132fb565b925050602083013567ffffffffffffffff8111156138ea576138e9613168565b5b6138f685828601613876565b9150509250929050565b6000806040838503121561391757613916613163565b5b6000613925858286016132fb565b92505060206139368582860161349f565b9150509250929050565b60006020828403121561395657613955613163565b5b6000613964848285016133b0565b91505092915050565b6000806040838503121561398457613983613163565b5b600083013567ffffffffffffffff8111156139a2576139a1613168565b5b6139ae85828601613656565b92505060206139bf858286016132fb565b9150509250929050565b600080604083850312156139e0576139df613163565b5b600083013567ffffffffffffffff8111156139fe576139fd613168565b5b613a0a85828601613876565b9250506020613a1b858286016133b0565b9150509250929050565b60008060408385031215613a3c57613a3b613163565b5b6000613a4a858286016133b0565b9250506020613a5b8582860161349f565b9150509250929050565b600081519050919050565b600082825260208201905092915050565b6000819050602082019050919050565b613a9a8161335d565b82525050565b6000613aac8383613a91565b60208301905092915050565b6000602082019050919050565b6000613ad082613a65565b613ada8185613a70565b9350613ae583613a81565b8060005b83811015613b16578151613afd8882613aa0565b9750613b0883613ab8565b925050600181019050613ae9565b5085935050505092915050565b60006020820190508181036000830152613b3d8184613ac5565b905092915050565b613b4e816136fc565b82525050565b600060e082019050613b69600083018a613b45565b613b766020830189613417565b613b836040830188613426565b613b906060830187613b45565b613b9d6080830186613b45565b613baa60a0830185613b45565b613bb760c0830184613b45565b98975050505050505050565b600067ffffffffffffffff821115613bde57613bdd613559565b5b613be78261326e565b9050602081019050919050565b6000613c07613c0284613bc3565b6135b9565b905082815260208101848484011115613c2357613c22613554565b5b613c2e848285613605565b509392505050565b600082601f830112613c4b57613c4a61354f565b5b8135613c5b848260208601613bf4565b91505092915050565b60008060008060808587031215613c7e57613c7d613163565b5b6000613c8c878288016133b0565b9450506020613c9d878288016133b0565b9350506040613cae878288016132fb565b925050606085013567ffffffffffffffff811115613ccf57613cce613168565b5b613cdb87828801613c36565b91505092959194509250565b60008060408385031215613cfe57613cfd613163565b5b6000613d0c858286016132fb565b9250506020613d1d858286016133b0565b9150509250929050565b60008060408385031215613d3e57613d3d613163565b5b6000613d4c858286016133b0565b9250506020613d5d858286016133b0565b9150509250929050565b6000604082019050613d7c60008301856131fe565b613d896020830184613426565b9392505050565b60008060408385031215613da757613da6613163565b5b6000613db5858286016132fb565b9250506020613dc6858286016132fb565b9150509250929050565b7f4e487b7100000000000000000000000000000000000000000000000000000000600052602260045260246000fd5b60006002820490506001821680613e1757607f821691505b602082108103613e2a57613e29613dd0565b5b50919050565b7f4552433732313a20617070726f76616c20746f2063757272656e74206f776e6560008201527f7200000000000000000000000000000000000000000000000000000000000000602082015250565b6000613e8c602183613233565b9150613e9782613e30565b604082019050919050565b60006020820190508181036000830152613ebb81613e7f565b9050919050565b7f4552433732313a20617070726f76652063616c6c6572206973206e6f7420746f60008201527f6b656e206f776e6572206f7220617070726f76656420666f7220616c6c000000602082015250565b6000613f1e603d83613233565b9150613f2982613ec2565b604082019050919050565b60006020820190508181036000830152613f4d81613f11565b9050919050565b7f4552433732313a2063616c6c6572206973206e6f7420746f6b656e206f776e6560008201527f72206f7220617070726f76656400000000000000000000000000000000000000602082015250565b6000613fb0602d83613233565b9150613fbb82613f54565b604082019050919050565b60006020820190508181036000830152613fdf81613fa3565b9050919050565b600081905092915050565b6000613ffc82613228565b6140068185613fe6565b9350614016818560208601613244565b80840191505092915050565b7f2000000000000000000000000000000000000000000000000000000000000000600082015250565b6000614058600183613fe6565b915061406382614022565b600182019050919050565b600061407a8285613ff1565b91506140858261404b565b91506140918284613ff1565b91508190509392505050565b7f455243373231456e756d657261626c653a206f776e657220696e646578206f7560008201527f74206f6620626f756e6473000000000000000000000000000000000000000000602082015250565b60006140f9602b83613233565b91506141048261409d565b604082019050919050565b60006020820190508181036000830152614128816140ec565b9050919050565b7f455243373231456e756d657261626c653a20676c6f62616c20696e646578206f60008201527f7574206f6620626f756e64730000000000000000000000000000000000000000602082015250565b600061418b602c83613233565b91506141968261412f565b604082019050919050565b600060208201905081810360008301526141ba8161417e565b9050919050565b7f4e487b7100000000000000000000000000000000000000000000000000000000600052603260045260246000fd5b7f4552433732313a20696e76616c696420746f6b656e2049440000000000000000600082015250565b6000614226601883613233565b9150614231826141f0565b602082019050919050565b6000602082019050818103600083015261425581614219565b9050919050565b7f4552433732313a2061646472657373207a65726f206973206e6f74206120766160008201527f6c6964206f776e65720000000000000000000000000000000000000000000000602082015250565b60006142b8602983613233565b91506142c38261425c565b604082019050919050565b600060208201905081810360008301526142e7816142ab565b9050919050565b7f4e487b7100000000000000000000000000000000000000000000000000000000600052601160045260246000fd5b6000614328826132da565b91507fffffffffffffffffffffffffffffffffffffffffffffffffffffffffffffffff820361435a576143596142ee565b5b600182019050919050565b7f436f6e74726163742063757272656e746c792070617573656400000000000000600082015250565b600061439b601983613233565b91506143a682614365565b602082019050919050565b600060208201905081810360008301526143ca8161438e565b9050919050565b7f457863656564206d6178696d756d20546f6b776e466163746f7279207375707060008201527f6c79000000000000000000000000000000000000000000000000000000000000602082015250565b600061442d602283613233565b9150614438826143d1565b604082019050919050565b6000602082019050818103600083015261445c81614420565b9050919050565b600061446e826132da565b9150614479836132da565b9250828201905080821115614491576144906142ee565b5b92915050565b60008190508160005260206000209050919050565b60006020601f8301049050919050565b600082821b905092915050565b6000600883026144f97fffffffffffffffffffffffffffffffffffffffffffffffffffffffffffffffff826144bc565b61450386836144bc565b95508019841693508086168417925050509392505050565b6000819050919050565b600061454061453b614536846132da565b61451b565b6132da565b9050919050565b6000819050919050565b61455a83614525565b61456e61456682614547565b8484546144c9565b825550505050565b600090565b614583614576565b61458e818484614551565b505050565b5b818110156145b2576145a760008261457b565b600181019050614594565b5050565b601f8211156145f7576145c881614497565b6145d1846144ac565b810160208510156145e0578190505b6145f46145ec856144ac565b830182614593565b50505b505050565b600082821c905092915050565b600061461a600019846008026145fc565b1980831691505092915050565b60006146338383614609565b9150826002028217905092915050565b61464c82613228565b67ffffffffffffffff81111561466557614664613559565b5b61466f8254613dff565b61467a8282856145b6565b600060209050601f8311600181146146ad576000841561469b578287015190505b6146a58582614627565b86555061470d565b601f1984166146bb86614497565b60005b828110156146e3578489015182556001820191506020850194506020810190506146be565b8683101561470057848901516146fc601f891682614609565b8355505b6001600288020188555050505b505050505050565b60006147218285613ff1565b915061472d8284613ff1565b91508190509392505050565b7f4f776e61626c653a206e6577206f776e657220697320746865207a65726f206160008201527f6464726573730000000000000000000000000000000000000000000000000000602082015250565b6000614795602683613233565b91506147a082614739565b604082019050919050565b600060208201905081810360008301526147c481614788565b9050919050565b7f4e487b7100000000000000000000000000000000000000000000000000000000600052601260045260246000fd5b7f4f776e61626c653a2063616c6c6572206973206e6f7420746865206f776e6572600082015250565b6000614830602083613233565b915061483b826147fa565b602082019050919050565b6000602082019050818103600083015261485f81614823565b9050919050565b7f4552433732313a207472616e736665722066726f6d20696e636f72726563742060008201527f6f776e6572000000000000000000000000000000000000000000000000000000602082015250565b60006148c2602583613233565b91506148cd82614866565b604082019050919050565b600060208201905081810360008301526148f1816148b5565b9050919050565b7f4552433732313a207472616e7366657220746f20746865207a65726f2061646460008201527f7265737300000000000000000000000000000000000000000000000000000000602082015250565b6000614954602483613233565b915061495f826148f8565b604082019050919050565b6000602082019050818103600083015261498381614947565b9050919050565b7f4552433732313a20617070726f766520746f2063616c6c657200000000000000600082015250565b60006149c0601983613233565b91506149cb8261498a565b602082019050919050565b600060208201905081810360008301526149ef816149b3565b9050919050565b7f4552433732313a207472616e7366657220746f206e6f6e20455243373231526560008201527f63656976657220696d706c656d656e7465720000000000000000000000000000602082015250565b6000614a52603283613233565b9150614a5d826149f6565b604082019050919050565b60006020820190508181036000830152614a8181614a45565b9050919050565b7f455243373231456e756d657261626c653a20636f6e736563757469766520747260008201527f616e7366657273206e6f7420737570706f727465640000000000000000000000602082015250565b6000614ae4603583613233565b9150614aef82614a88565b604082019050919050565b60006020820190508181036000830152614b1381614ad7565b9050919050565b600081519050919050565b600082825260208201905092915050565b6000614b4182614b1a565b614b4b8185614b25565b9350614b5b818560208601613244565b614b648161326e565b840191505092915050565b6000608082019050614b84600083018761336f565b614b91602083018661336f565b614b9e6040830185613426565b8181036060830152614bb08184614b36565b905095945050505050565b600081519050614bca81613199565b92915050565b600060208284031215614be657614be5613163565b5b6000614bf484828501614bbb565b91505092915050565b6000614c08826132da565b9150614c13836132da565b9250828203905081811115614c2b57614c2a6142ee565b5b92915050565b7f4e487b7100000000000000000000000000000000000000000000000000000000600052603160045260246000fd5b7f4552433732313a206d696e7420746f20746865207a65726f2061646472657373600082015250565b6000614c96602083613233565b9150614ca182614c60565b602082019050919050565b60006020820190508181036000830152614cc581614c89565b9050919050565b7f4552433732313a20746f6b656e20616c7265616479206d696e74656400000000600082015250565b6000614d02601c83613233565b9150614d0d82614ccc565b602082019050919050565b60006020820190508181036000830152614d3181614cf5565b905091905056fea26469706673582212209d56835542c3d381628d7cda27f67d3b8acecbe8adbc965878c8a7ba9f60b43e64736f6c63430008110033",
  "linkReferences": {},
  "deployedLinkReferences": {}
}